:0400000007EF00F016
:0A0008007D823BED08F011EF17F0C8
:101000000041206973207468652077696E6E65728F
:101010000042206973207468652077696E6E65727E
:101020000043206973207468652077696E6E65726D
:101030000044206973207468652077696E6E65725C
:1010400000566F74696E67206973207265616479F8
:101050000057656C636F6D65004C6F6164696E6706
:101060000020202000413A00423A00433A00443A2E
:051070000025690000ED
:101076000600FACF37F0FBCF38F0E9CF39F0EACFE8
:101086003AF0E1CF3BF0E2CF3CF0D9CF3DF0DACFFA
:101096003EF0F3CF3FF0F4CF40F0F6CF41F0F7CF7C
:1010A60042F0F8CF43F0F5CF44F0F2A85DEF08F038
:1010B6005FEF08F068EF08F0F2A264EF08F066EF61
:1010C60008F068EF08F09DEC1DF0F0A66DEF08F053
:1010D6006FEF08F078EF08F0F0A074EF08F076EF05
:1010E60008F078EF08F086EC1DF0F0A87DEF08F028
:1010F6007FEF08F088EF08F0F0A284EF08F086EFA3
:1011060008F088EF08F06FEC1DF0F2A68DEF08F0FE
:101116008FEF08F0AAEF08F0F2A094EF08F096EF30
:1011260008F0AAEF08F081A89BEF08F09DEF08F001
:10113600AAEF08F06904D8A4A3EF08F0A5EF08F019
:10114600AAEF08F0000E696E000E55EC18F0F2A634
:10115600AFEF08F0B1EF08F0CCEF08F0F2A0B6EF71
:1011660008F0B8EF08F0CCEF08F081B8BDEF08F052
:10117600BFEF08F0CCEF08F06950D8A4C5EF08F02F
:10118600C7EF08F0CCEF08F0010E696E010E55ECC2
:1011960018F0F2A6D1EF08F0D3EF08F0EEEF08F062
:1011A600F2A0D8EF08F0DAEF08F0EEEF08F081AA27
:1011B600DFEF08F0E1EF08F0EEEF08F06804D8A4DE
:1011C600E7EF08F0E9EF08F0EEEF08F0000E686EC2
:1011D600000E16EC18F0F2A6F3EF08F0F5EF08F0A3
:1011E60010EF09F0F2A0FAEF08F0FCEF08F010EFAC
:1011F60009F081BA01EF09F003EF09F010EF09F0E9
:101206006850D8A409EF09F00BEF09F010EF09F0C8
:10121600010E686E010E16EC18F0F2A615EF09F035
:1012260017EF09F032EF09F0F2A01CEF09F01EEFFC
:1012360009F032EF09F081AC23EF09F025EF09F050
:1012460032EF09F06704D8A42BEF09F02DEF09F06F
:1012560032EF09F0000E676E000ED7EC17F0F2A61B
:1012660037EF09F039EF09F054EF09F0F2A03EEF3D
:1012760009F040EF09F054EF09F081BC45EF09F0A1
:1012860047EF09F054EF09F06750D8A44DEF09F085
:101296004FEF09F054EF09F0010E676E010ED7EC1F
:1012A60017F0F2A659EF09F05BEF09F076EF09F0B7
:1012B600F2A060EF09F062EF09F076EF09F081AE77
:1012C60067EF09F069EF09F076EF09F06604D8A434
:1012D6006FEF09F071EF09F076EF09F0000E666E18
:1012E600000E98EC17F0F2A67BEF09F07DEF09F0FF
:1012F60098EF09F0F2A082EF09F084EF09F098EF79
:1013060009F081BE89EF09F08BEF09F098EF09F03B
:101316006650D8A491EF09F093EF09F098EF09F021
:10132600010E666E010E98EC17F044C0F5FF43C03F
:10133600F8FF42C0F7FF41C0F6FF40C0F4FF3FC0D0
:10134600F3FF3EC0DAFF3DC0D9FF3CC0E2FF3BC021
:10135600E1FF3AC0EAFF39C0E9FF38C0FBFF37C0FA
:10136600FAFF7D92110000018B51D96EDA6ADFCF48
:10137600F6FF100EF76EF86A0800F550250AD8A495
:10138600C7EF09F0C9EF09F08EEF0AF08B51D96E5D
:10139600DA6ADF2A000E4C6E000E4B6E4BC065F00B
:1013A6004D684E688B51D96EDA6ADF508F6F8FC0E9
:1013B600F6FF100EF76EF86A0800F550640AD8B406
:1013C600E7EF09F0E9EF09F0F8EF09F08FC0F6FF53
:1013D600100EF76EF86A0800F550690AD8A4F6EF01
:1013E60009F0F8EF09F087EF0AF08C51D96EDA6A46
:1013F600020EDF26DF5CD96EDA6ADECF90F0DECF32
:1014060091F08B51D96EDA6A8F29DF6E200E946FB8
:1014160091BF10EF0AF013EF0AF0010E14EF0AF075
:10142600000E8E6F9407000E9425D96EDA6A010EAF
:10143600DA2290C080F091C081F0000E836F0A0E10
:10144600826F39EC13F080C086F081C087F08DEC96
:101456001CF000018651300FDF6E90C080F091C005
:1014660081F0000E836F0A0E826F1BEC12F080C0B3
:1014760090F081C091F0000190519111D8B446EFDF
:101486000AF048EF0AF050EF0AF09451D8A44EEF54
:101496000AF050EF0AF015EF0AF09451D8B456EF5F
:1014A6000AF058EF0AF07CEF0AF08E51D8B45EEFDE
:1014B6000AF060EF0AF07CEF0AF09407000E94251C
:1014C600D96EDA6A010EDA222D0EDF6E7CEF0AF093
:1014D600000E9425D96EDA6A010EDA22DF508D6F7E
:1014E6008D51806F816B8AC082F042EC14F000014E
:1014F600942B200E9419D8A483EF0AF085EF0AF0F6
:101506006BEF0AF0A0EF0AF000018B51D96EDA6A90
:10151600DF2AA0EF0AF08B51D96EDA6ADFCFF6FF29
:10152600100EF76EF86A0800F550806F816B8AC05E
:1015360082F042EC14F087EF0AF012000C50D96EDC
:10154600DA6ADFCFF6FF100EF76EF86A0800F5507C
:10155600250AD8A4B1EF0AF0B3EF0AF074EF0BF046
:101566000C50D96EDA6ADF2A000E4C6E000E4B6EF6
:101576004BC065F04D684E680C50D96EDA6ADF5084
:10158600106E10C0F6FF100EF76EF86A0800F550E0
:10159600640AD8B4D1EF0AF0D3EF0AF0E2EF0AF00A
:1015A60010C0F6FF100EF76EF86A0800F550690ACB
:1015B600D8A4E0EF0AF0E2EF0AF06EEF0BF00D5060
:1015C600D96EDA6A020EDF26DF5CD96EDA6ADECF02
:1015D60011F0DECF12F00C50D96EDA6A1028DF6EE9
:1015E600200E156E12BEFAEF0AF0FDEF0AF0010E9C
:1015F600FEEF0AF0000E0F6E1506000E1524D96ECA
:10160600DA6A010EDA2211C001F012C002F0000EF1
:10161600046E0A0E036EEAEC13F001C007F002C076
:1016260008F0F6EC1CF00750300FDF6E11C001F029
:1016360012C002F0000E046E0A0E036E7EEC12F06B
:1016460001C011F002C012F011501210D8B42EEFE2
:101656000BF030EF0BF038EF0BF01550D8A436EF47
:101666000BF038EF0BF0FFEF0AF01550D8B43EEF51
:101676000BF040EF0BF063EF0BF00F50D8B446EFD2
:101686000BF048EF0BF063EF0BF01506000E152478
:10169600D96EDA6A010EDA222D0EDF6E63EF0BF0D9
:1016A600000E1524D96EDA6A010EDA22DF500E6EAC
:1016B6000E50016E026A0BC003F098EC14F0152A66
:1016C600200E1518D8A46AEF0BF06CEF0BF053EF51
:1016D6000BF086EF0BF00C50D96EDA6ADF2A86EF34
:1016E6000BF00C50D96EDA6ADFCFF6FF100EF76EEC
:1016F600F86A0800F550016E026A0BC003F098EC18
:1017060014F06EEF0BF012002BEC1BF0FDC0AAF0EC
:101716000001AB6BF40EAC6F41EC15F07C6EFCC0B7
:10172600AAF00001AB6BEE0EAC6F41EC15F07C6ECF
:10173600FBC0AAF00001AB6BE80EAC6F41EC15F0F4
:101746007C6EFAC0AAF00001AB6BE20EAC6F41EC06
:1017560015F07C6EC90E0001946F650E956F95515C
:10176600D8A4100E966F010E976F010E986F92EC2B
:1017760013F07C6EC90E0001946FF40E956F966B94
:10178600010E976F030E986F92EC13F07C6EC90EE4
:101796000001946F680E956F9551D8A4100E966F40
:1017A600010E976F0C0E986F92EC13F07C6EC90EBB
:1017B6000001946FEE0E956F966B010E976F0E0EED
:1017C600986F92EC13F07C6EC90E0001946F6B0E4D
:1017D600956F9551D8A4100E966F020E976F010E55
:1017E600986F92EC13F07C6EC90E0001946FE80EB0
:1017F600956F966B020E976F030E986F92EC13F02F
:101806007C6EC90E0001946F6E0E956F9551D8A42B
:10181600100E966F020E976F0C0E986F92EC13F0E7
:101826007C6EC90E0001946FE20E956F966B020EE8
:10183600976F0E0E986F92EC13F07C6E0001E151DB
:10184600D8B428EF0CF02AEF0CF031EF0CF0C90EEB
:101856008D6F010E8E6F7FEC19F07C6E1200000EFC
:1018660000019C6FC90E946F590E956F9551D8A4BF
:10187600100E966F010E976F010E986F92EC13F093
:101886007C6E020E00019B6F040E9A6FBA0EE82E54
:10189600FED79A2FFCD79B2FFAD70000000E000127
:1018A6009C6F080E9D6FC90E946F2E0E956F010EDC
:1018B600966F9DC097F050EC1BF07C6E020E0001F7
:1018C6009B6F450E9A6FA90EE82EFED79A2FFCD76E
:1018D6009B2FFAD700D000019D2B0A0E9D6576EF4F
:1018E6000CF078EF0CF056EF0CF0C90E946F610E09
:1018F600956F9551D8A4100E966F010E976F080E2E
:10190600986F92EC13F07C6E020E00019B6F450EF1
:101916009A6FA90EE82EFED79A2FFCD79B2FFAD7DF
:1019260000D000019C2B020E9C659CEF0CF09EEFF4
:101936000CF054EF0CF0C90E8D6F010E8E6F7FEC1C
:1019460019F07C6E820E00019A6FDD0EE82EFED72E
:101956009A2FFCD700D0C90E0001946F410E956FE7
:101966009551D8A4100E966F010E976F010E986FC1
:1019760092EC13F07C6E040E00019B6FCF0E9A6FF3
:10198600010EE82EFED79A2FFCD79B2FFAD700D050
:10199600C90E00018D6F010E8E6F7FEC19F07C6E03
:1019A60012000001FD51FC5DD8B0DCEF0CF0DEEF5B
:1019B6000CF000EF0DF0FD51FB5DD8B0E5EF0CF03B
:1019C600E7EF0CF000EF0DF0FD51FA5DD8B0EEEF49
:1019D6000CF0F0EF0CF000EF0DF0C90E946F010E55
:1019E600956F9551D8A4100E966F010E976F010E44
:1019F600986F92EC13F064EF0DF0FC51FD5DD8B0DA
:101A060007EF0DF009EF0DF02BEF0DF0FC51FB5D2C
:101A1600D8B010EF0DF012EF0DF02BEF0DF0FC51DA
:101A2600FA5DD8B019EF0DF01BEF0DF02BEF0DF0AE
:101A3600C90E946F110E956F9551D8A4100E966F1E
:101A4600010E976F010E986F92EC13F064EF0DF094
:101A5600FB51FD5DD8B032EF0DF034EF0DF056EFCF
:101A66000DF0FB51FC5DD8B03BEF0DF03DEF0DF0F6
:101A760056EF0DF0FB51FA5DD8B044EF0DF046EF8E
:101A86000DF056EF0DF0C90E946F210E956F95511E
:101A9600D8A4100E966F010E976F010E986F92ECF8
:101AA60013F064EF0DF0C90E946F310E956F9551DA
:101AB600D8A4100E966F010E976F010E986F92ECD8
:101AC60013F00001E151D8A46BEF0DF06DEF0DF0AE
:101AD60074EF0DF0C90E8D6F010E8E6F7FEC19F04D
:101AE6007C6E12000001FD51FC5DD8B07DEF0DF05B
:101AF6007FEF0DF0A1EF0DF0FD51FB5DD8B086EF45
:101B06000DF088EF0DF0A1EF0DF0FD51FA5DD8B0A4
:101B16008FEF0DF091EF0DF0A1EF0DF0C90E156EE0
:101B2600010E166E1650D8A4100E176E010E186E02
:101B3600010E196EEDEC14F005EF0EF0FC51FD5D93
:101B4600D8B0A8EF0DF0AAEF0DF0CCEF0DF0FC51D8
:101B5600FB5DD8B0B1EF0DF0B3EF0DF0CCEF0DF0AB
:101B6600FC51FA5DD8B0BAEF0DF0BCEF0DF0CCEF3A
:101B76000DF0C90E156E110E166E1650D8A4100E65
:101B8600176E010E186E010E196EEDEC14F005EFCE
:101B96000EF0FB51FD5DD8B0D3EF0DF0D5EF0DF093
:101BA600F7EF0DF0FB51FC5DD8B0DCEF0DF0DEEF8A
:101BB6000DF0F7EF0DF0FB51FA5DD8B0E5EF0DF043
:101BC600E7EF0DF0F7EF0DF0C90E156E210E166E4C
:101BD6001650D8A4100E176E010E186E010E196E4F
:101BE600EDEC14F005EF0EF0C90E156E310E166E03
:101BF6001650D8A4100E176E010E186E010E196E2F
:101C0600EDEC14F00001E151D8A40CEF0EF00EEF4C
:101C16000EF015EF0EF0C90E0E6E010E0F6EEDEC06
:101C260019F07C6E1200B7EC1BF0FDC02BF02C6A8D
:101C3600F40E2D6E94EC15F07C6EFCC02BF02C6A25
:101C4600EE0E2D6E94EC15F07C6EFBC02BF02C6A1C
:101C5600E80E2D6E94EC15F07C6EFAC02BF02C6A13
:101C6600E20E2D6E94EC15F07C6EC90E156E650EA7
:101C7600166E1650D8A4100E176E010E186E010EB1
:101C8600196EEDEC14F07C6EC90E156EF40E166E20
:101C9600176A010E186E030E196EEDEC14F07C6EC9
:101CA600C90E156E680E166E1650D8A4100E176E55
:101CB600010E186E0C0E196EEDEC14F07C6EC90E4A
:101CC600156EEE0E166E176A010E186E0E0E196E52
:101CD600EDEC14F07C6EC90E156E6B0E166E16507A
:101CE600D8A4100E176E020E186E010E196EEDECCA
:101CF60014F07C6EC90E156EE80E166E176A020E8B
:101D0600186E030E196EEDEC14F07C6EC90E156E8E
:101D16006E0E166E1650D8A4100E176E020E186EA2
:101D26000C0E196EEDEC14F07C6EC90E156EE20EFB
:101D3600166E176A020E186E0E0E196EEDEC14F082
:101D46007C6E0001E151D8B4ABEF0EF0ADEF0EF0B2
:101D5600B4EF0EF0C90E0E6E010E0F6EEDEC19F01B
:101D66007C6E1200000180518111D8A4BDEF0EF0E7
:101D7600BFEF0EF02BEF0FF0000E846F4AEF0FF05F
:101D860020EE03F08051D9268151DA22DF50D8A403
:101D9600CFEF0EF0D1EF0EF0D4EF0EF0F19CE3EFA3
:101DA6000EF020EE03F08051D9268151DA22DE04AE
:101DB600D8A4E0EF0EF0E2EF0EF0E3EF0EF0F18CB8
:101DC600010E846F4AEF0FF020EE03F08051D92602
:101DD6008151DA22DF50D8A4F3EF0EF0F5EF0EF0C2
:101DE600F8EF0EF0F19AE3EF0EF020EE03F08051DB
:101DF600D9268151DA22DE04D8A404EF0FF006EFCB
:101E06000FF0E3EF0EF0F18AE3EF0EF020EE03F0B1
:101E16008051D9268151DA22DF50D8A415EF0FF070
:101E260017EF0FF01AEF0FF0F198E3EF0EF020EE38
:101E360003F08051D9268151DA22DE04D8A426EF98
:101E46000FF028EF0FF0E3EF0EF0F188E3EF0EF05E
:101E560020EE04F08051D9268151DA22DF50826FBC
:101E6600836B8351000AD8B43BEF0FF0BFEF0EF03F
:101E76008251000AD8B4C3EF0EF0010AD8B4E7EFD6
:101E86000EF0030AD8B409EF0FF0BFEF0EF084513D
:101E9600120000019051D8A453EF0FF055EF0FF048
:101EA60059EF0FF0000E936FDEEF0FF090C089F040
:101EB6008A6BD0EC18F00001936F90C091F0010E80
:101EC600912791C089F08A6BD0EC18F00001936FCE
:101ED600000E926F90519225916F020E912791C03C
:101EE60089F08A6BD0EC18F00001922B030E9265F4
:101EF6007FEF0FF081EF0FF06DEF0FF01A0E00017C
:101F0600916FF80EE82EFED7912FFCD7000090C0F7
:101F16008DF0380E00018E6F7FEC19F0070E000170
:101F2600916F7D0EE82EFED7912FFCD790C08DF0D5
:101F3600380E00018E6F7FEC19F0320EE82EFED7B8
:101F460090C08DF0380E00018E6F7FEC19F090C0B6
:101F56008DF0010E00018E6F7FEC19F090C08DF0B0
:101F6600020E00018E6F7FEC19F090C08DF0060E08
:101F760000018E6F7FEC19F090C08DF00C0E000101
:101F86008E6F7FEC19F090C08DF0400E00018E6FC1
:101F96007FEC19F090C08DF0800E00018E6F7FEC03
:101FA60019F090C08DF0280E00018E6F7FEC19F0AD
:101FB600010E0001936F93511200000180518111AF
:101FC600D8B4E8EF0FF0EAEF0FF0FBEF0FF080C0A8
:101FD600D9FF81C0DAFFDF30E832E832070B826FC3
:101FE600070E8265F9EF0FF0FBEF0FF05AEF10F0D6
:101FF600000E876F71EF10F080C0D9FF81C0DAFF45
:10200600DF30E832E832070B826F010E836F822BD6
:102016000FEF10F0D8908337822F0DEF10F00001EC
:102026008351FF0A846F80C0D9FF81C0DAFFDF5079
:10203600070B020DF350BF0FD96EDA6ADECF85F0BB
:10204600DDCF86F085C0D9FF86C0DAFF8451DF1662
:10205600010E876F71EF10F080C0D9FF81C0DAFFE3
:10206600DF30E832E832070B826F010E836F822B76
:102076003FEF10F0D8908337822F3DEF10F080C0ED
:10208600D9FF81C0DAFFDF50070B020DF350BF0FF7
:10209600D96EDA6ADECF84F0DDCF85F084C0D9FF51
:1020A60085C0DAFF00018351DF122BEF10F080C0EC
:1020B600D9FF81C0DAFFDFBC63EF10F066EF10F0E6
:1020C600010E67EF10F0000E000AD8B4FFEF0FF014
:1020D600010AD8B42FEF10F0FBEF0FF08751120072
:1020E600000180518111D8B47BEF10F07DEF10F024
:1020F6008EEF10F080C0D9FF81C0DAFFDF30E83202
:10210600E832070B836F070E83658CEF10F08EEFB6
:1021160010F0EDEF10F0000E886F02EF11F080C0A6
:10212600D9FF81C0DAFFDF30E832E832070B836F70
:10213600010E846F832BA2EF10F0D8908437832F83
:10214600A0EF10F000018451FF0A856F80C0D9FF0F
:1021560081C0DAFFDF50070B020DF350B50FD96EC1
:10216600DA6ADECF86F0DDCF87F086C0D9FF87C07A
:10217600DAFF8551DF16010E886F02EF11F080C07D
:10218600D9FF81C0DAFFDF30E832E832070B836F10
:10219600010E846F832BD2EF10F0D8908437832FF3
:1021A600D0EF10F080C0D9FF81C0DAFFDF50070BF7
:1021B600020DF350B50FD96EDA6ADECF85F0DDCFAA
:1021C60086F085C0D9FF86C0DAFF00018451DF1290
:1021D600BEEF10F08251836F846B8451000AD8B42D
:1021E600F7EF10F08EEF10F08351000AD8B492EF9B
:1021F60010F0010AD8B4C2EF10F08EEF10F088513B
:10220600120001500210D8B40BEF11F00DEF11F0CF
:102216001EEF11F001C0D9FF02C0DAFFDF30E8324D
:10222600E832070B046E070E04641CEF11F01EEF74
:1022360011F07BEF11F0000E096E90EF11F001C066
:10224600D9FF02C0DAFFDF30E832E832070B046E4E
:10225600010E056E042A32EF11F0D8900536042ED1
:1022660030EF11F00550FF0A066E01C0D9FF02C01B
:10227600DAFFDF50070B020DF350B50FD96EDA6A9D
:10228600DECF07F0DDCF08F007C0D9FF08C0DAFFC0
:102296000650DF16010E096E90EF11F001C0D9FF4E
:1022A60002C0DAFFDF30E832E832070B046E010EB7
:1022B600056E042A61EF11F0D8900536042E5FEF03
:1022C60011F001C0D9FF02C0DAFFDF50070B020D83
:1022D600F350B50FD96EDA6ADECF06F0DDCF07F020
:1022E60006C0D9FF07C0DAFF0550DF124DEF11F027
:1022F6000350046E056A0550000AD8B485EF11F044
:102306001EEF11F00450000AD8B422EF11F0010AB2
:10231600D8B451EF11F01EEF11F009501200000170
:102326008851D8A499EF11F09BEF11F09FEF11F0AF
:10233600000E8A6F19EF12F0F296F290F28EF28C7E
:1023460088C089F0040E892789C080F0816BE0EC93
:102356000FF0FCEF11F08851D96EDA6ADECF5DF02E
:10236600DDCF5EF08851D96EDA6A020ED926DECF4D
:102376005BF0DDCF5CF0010E8A6F18EF12F088512A
:10238600D96EDA6ADECF59F0DDCF5AF08851D96EB0
:10239600DA6A020ED926DECF57F0DDCF58F0BEEF4F
:1023A60011F08851D96EDA6ADECF55F0DDCF56F0DE
:1023B6008851D96EDA6A020ED926DECF53F0DDCF08
:1023C60054F0BEEF11F08851D96EDA6ADECF51F0C3
:1023D600DDCF52F08851D96EDA6A020ED926DECFE9
:1023E6004FF0DDCF50F0BEEF11F0000E8A6F18EF00
:1023F60012F000018851D96EDA6A040ED926DF3050
:10240600E832E832070B040AD8B4AEEF11F0010A3D
:10241600D8B4C2EF11F0030AD8B4D4EF11F0010A10
:10242600D8B4E6EF11F0F8EF11F0F2868A511200F7
:10243600000E0001856F83BF25EF12F023EF12F027
:102446002BEF12F0826D831FD8B0832B010E856FA0
:1024560081BF32EF12F030EF12F038EF12F0806DDC
:10246600811FD8B0812B010E851B000E876F000ED1
:10247600866F82518311D8B443EF12F045EF12F004
:102486006DEF12F0010E846F4DEF12F0D890823787
:102496008337842B83AF52EF12F054EF12F049EFDB
:1024A60012F0D890863787378251805D83518159E3
:1024B600D8A060EF12F062EF12F067EF12F08251CF
:1024C600805F8351815B8681D89083338233842FEA
:1024D60054EF12F08551D8B473EF12F075EF12F085
:1024E60079EF12F0866D871FD8B0872B86C080F0F3
:1024F60087C081F01200000E066E04BE87EF12F050
:1025060085EF12F08DEF12F0036C041ED8B0042A8A
:10251600010E066E02BE94EF12F092EF12F09AEFE1
:1025260012F0016C021ED8B0022A010E061A000E25
:10253600086E000E076E03500410D8B4A5EF12F013
:10254600A7EF12F0CFEF12F0010E056EAFEF12F00B
:10255600D89003360436052A04AEB4EF12F0B6EF6F
:1025660012F0ABEF12F0D890073608360350015C34
:1025760004500258D8A0C2EF12F0C4EF12F0C9EF0F
:1025860012F00350015E0450025A0780D8900432BC
:102596000332052EB6EF12F00650D8B4D5EF12F07E
:1025A600D7EF12F0DBEF12F0076C081ED8B0082A3E
:1025B60007C001F008C002F0120000018251831129
:1025C600D8A4E8EF12F0EAEF12F018EF13F0000EBD
:1025D600866F37EF13F082C0D9FF83C0DAFFDECFF4
:1025E60080F0DDCF81F0F2EC1DF00001866F37EF51
:1025F60013F082C0D9FF83C0DAFFDECF80F0DDCFD3
:1026060081F0DEEC1DF00001866F37EF13F082C01B
:10261600D9FF83C0DAFFDECF80F0DDCF81F0CAECD0
:102626001DF00001866F37EF13F020EE04F08251A3
:10263600D9268351DA22DF50846F856B8551000AD3
:10264600D8B428EF13F0EAEF12F08451000AD8B498
:10265600EEEF12F0010AD8B4FCEF12F0030AD8B478
:102666000AEF13F0EAEF12F086511200000E000195
:10267600856F81BF43EF13F041EF13F049EF13F07D
:10268600806D811FD8B0812B010E856F83BF50EFFF
:1026960013F04EEF13F054EF13F0826D831FD8B092
:1026A600832B82518311D8B45BEF13F05DEF13F0E7
:1026B60081EF13F0010E846F65EF13F0D890823727
:1026C6008337842B83AF6AEF13F06CEF13F061EF5F
:1026D60013F08251805D83518159D8A075EF13F0B4
:1026E60077EF13F07BEF13F08251805F8351815BAC
:1026F600D89083338233842F6CEF13F08551D8B48E
:1027060087EF13F089EF13F08DEF13F0806D811FC3
:10271600D8B0812B80C080F081C081F0120000010A
:102726009451D8B499EF13F09BEF13F0A4EF13F084
:1027360095519611D8A4A2EF13F0A4EF13F0A8EFC9
:1027460013F0000E996FE8EF13F094C090F097C065
:1027560091F098C092F032EC16F0CCEF13F094C0E2
:102766008DF095C0F6FF96C0F7FF000EF86E0F0EBF
:10277600F76403D00800F55005D0F6CFE9FFF7CF90
:10278600EAFFEF5000018E6FB6EC19F00001954B91
:10279600962B95C0F6FF96C0F7FF000EF86E0F0E4B
:1027A600F76403D00800F55005D0F6CFE9FFF7CF60
:1027B600EAFFEF500009D8A4E3EF13F0E5EF13F0BA
:1027C600B2EF13F0010E0001996F99511200000E3D
:1027D600066E02BEF3EF13F0F1EF13F0F9EF13F00C
:1027E600016C021ED8B0022A010E066E04BE00EF6E
:1027F60014F0FEEF13F004EF14F0036C041ED8B0CF
:10280600042A03500410D8B40BEF14F00DEF14F0A3
:1028160031EF14F0010E056E15EF14F0D890033663
:102826000436052A04AE1AEF14F01CEF14F011EF6B
:1028360014F00350015C04500258D8A025EF14F0A0
:1028460027EF14F02BEF14F00350015E0450025AE8
:10285600D89004320332052E1CEF14F00650D8B47B
:1028660037EF14F039EF14F03DEF14F0016C021E4F
:10287600D8B0022A01C001F002C002F01200000125
:102886008251D8B449EF14F04BEF14F053EF14F023
:102896008251D8A451EF14F053EF14F058EF14F00E
:1028A600805167EC1EF097EF14F08251D96EDA6A08
:1028B6000A0ED926DE50DE10D8B464EF14F066EFA7
:1028C60014F07FEF14F08251D96EDA6A0A0ED92617
:1028D6008251E16EE26A030EE126DE50E65CE650C6
:1028E600800A876FDE50800A8759D8B07DEF14F0D2
:1028F6007FEF14F097EF14F08251D96EDA6A030E67
:10290600D926DF50836F8251D96EDA6ADF5083256C
:10291600D96EDA6A80C0DFFF8251D96EDA6A030E99
:10292600D926DE2A000EDD2212000350D8B49EEF0F
:1029360014F0A0EF14F0A8EF14F00350D8A4A6EFFB
:1029460014F0A8EF14F0ADEF14F0015068EC1EF08F
:10295600ECEF14F00350D96EDA6A0A0ED926DE506F
:10296600DE10D8B4B9EF14F0BBEF14F0D4EF14F0C6
:102976000350D96EDA6A0A0ED9260350E16EE26A6E
:10298600030EE126DE50E65CE650800A086EDE5055
:10299600800A0858D8B0D2EF14F0D4EF14F0ECEF58
:1029A60014F00350D96EDA6A030ED926DF50046E8E
:1029B6000350D96EDA6ADF500424D96EDA6A01C090
:1029C600DFFF0350D96EDA6A030ED926DE2A000E1F
:1029D600DD2212001550D8B4F3EF14F0F5EF14F021
:1029E600FEEF14F016501710D8A4FCEF14F0FEEF0B
:1029F60014F002EF15F0000E1A6E3FEF15F015C039
:102A060011F018C012F019C013F07EEC16F024EF86
:102A160015F015C00EF016C0F6FF17C0F7FF000E32
:102A2600F86E0F0EF76403D00800F55005D0F6CF08
:102A3600E9FFF7CFEAFFEF500F6E1EEC1AF0164AC9
:102A4600172A16C0F6FF17C0F7FF000EF86E0F0E16
:102A5600F76403D00800F55005D0F6CFE9FFF7CFAD
:102A6600EAFFEF500009D8A43BEF15F03DEF15F053
:102A76000CEF15F0010E1A6E1A5012000001AC513F
:102A8600D8A448EF15F04AEF15F04EEF15F0000EFA
:102A9600B36F92EF15F020EE45F010EEADF0050E97
:102AA600DBCFE3FFE806FCE2000EB46FACC080F0BB
:102AB600000E826F200E816F000E846F050E836FED
:102AC60010EC1DF00001AC51D96EDA6A050ED9265C
:102AD600DF6AAD0E996F710E9A6FAAC09BF0ABC0FC
:102AE6009CF056EC1CF083EF15F0B451AD0FD96E87
:102AF600DA6AAC51B425E16EE26ADFCFE7FFB42BA8
:102B06000001B451AD0FD96EDA6ADF50D8A48EEF4A
:102B160015F090EF15F078EF15F0010EB36FB35185
:102B260012002D50D8A49AEF15F09CEF15F0A0EFE7
:102B360015F0000E346EE2EF15F020EE45F010EEC3
:102B46002EF0050EDBCFE3FFE806FCE2000E356E45
:102B56002DC001F0000E036E200E026E000E056EF3
:102B6600050E046E29EC1DF02D50D96EDA6A050E9D
:102B7600D926DF6A2E0E1A6E710E1B6E2BC01CF044
:102B86002CC01DF0DCEC1CF0D4EF15F035502E0FE8
:102B9600D96EDA6A2D503524E16EE26ADFCFE7FF9F
:102BA600352A35502E0FD96EDA6ADF50D8A4DEEFFB
:102BB60015F0E0EF15F0C9EF15F0010E346E345044
:102BC600120000018951D8A4EBEF15F0EDEF15F0D6
:102BD600F1EF15F0000E8C6F30EF16F089C08BF018
:102BE600020E8B278BC080F0816B8A51010B826F9E
:102BF60073EC10F000018C6F89C08BF0030E8B27ED
:102C06008BC080F0816BD8908A31010B826F73EC98
:102C160010F000018C6F89C08BF0040E8B278BC0DF
:102C260080F0816B8A41E8423F0B010B826F73ECA7
:102C360010F000018C6F89C08BF0050E8B278BC0BE
:102C460080F0816B8A39E8461F0B010B826F73ECAB
:102C560010F000018C6F010E8C6F8C511200000178
:102C66009051D8A439EF16F03BEF16F03FEF16F06F
:102C7600000E936F7CEF16F0920766EF16F090C089
:102C86008DF09251800F8E6F7FEC19F079EF16F070
:102C960090C08DF09251C00F8E6F7FEC19F079EFD6
:102CA60016F090C08DF09251940F8E6F7FEC19F054
:102CB60079EF16F090C08DF09251D40F8E6F7FECA5
:102CC60019F079EF16F09151010AD8B442EF16F0D7
:102CD600030AD8B44BEF16F0010AD8B454EF16F035
:102CE600070AD8B45DEF16F079EF16F0010E000171
:102CF600936F935112001150D8A484EF16F086EF0B
:102D060016F08AEF16F0000E146EC6EF16F01306D4
:102D1600B1EF16F011C00EF01350800F0F6EEDECF0
:102D260019F0C4EF16F011C00EF01350C00F0F6E5D
:102D3600EDEC19F0C4EF16F011C00EF01350940F1D
:102D46000F6EEDEC19F0C4EF16F011C00EF0135033
:102D5600D40F0F6EEDEC19F0C4EF16F01250010A05
:102D6600D8B48DEF16F0030AD8B496EF16F0010A20
:102D7600D8B49FEF16F0070AD8B4A8EF16F0C4EF40
:102D860016F0010E146E145012000A50D8A4CEEF9D
:102D960016F0D0EF16F0D4EF16F0000E0D6E0FEF12
:102DA60017F00AC00CF0020E0C260CC001F0026AE5
:102DB6000B50010B036E04EC11F00D6E0AC00CF003
:102DC600030E0C260CC001F0026AD8900B30010BE2
:102DD600036E04EC11F00D6E0AC00CF0040E0C2606
:102DE6000CC001F0026A0B40E8423F0B010B036E78
:102DF60004EC11F00D6E0AC00CF0050E0C260CC08A
:102E060001F0026A0B38E8461F0B010B036E04EC57
:102E160011F00D6E010E0D6E0D501200340EF66E91
:102E26003C0EF76E000EF86E01EE20F010EE1CF070
:102E36000900F5CFEEFFE550E150FAE1680EF66EB7
:102E46003B0EF76E000EF86E00EEB5F010EE2CF0AD
:102E56000900F5CFEEFFE550E150FAE1B80EF66E47
:102E66003C0EF76E000EF86E00EE66F010EE16F0F1
:102E76000900F5CFEEFFE550E150FAE101EE00F072
:102E8600200EEE6AE806FDE100EEE1F01D0EEE6AA8
:102E9600E806FDE100EE45F0210EEE6AE806FDE1EA
:102EA6007D907D92000172EF1CF00001805181112E
:102EB600D8A460EF17F062EF17F077EF17F0000E67
:102EC600846F96EF17F0F28EF28CF288010E846F03
:102ED60096EF17F0F28EF28CF08669EF17F0F28E0D
:102EE600F28CF08869EF17F020EE04F08051D926B5
:102EF6008151DA22DF50826F836B8351000AD8B486
:102F060087EF17F062EF17F08251000AD8B466EF28
:102F160017F0010AD8B46DEF17F0030AD8B472EFB0
:102F260017F062EF17F084511200366EF2903650A9
:102F3600D8A4A0EF17F0A2EF17F0B9EF17F0515091
:102F46005210D8B4A9EF17F0ABEF17F0D6EF17F081
:102F560002D8B7EF17F00500FA6E5150FD6E5250C9
:102F6600FE6EFF6AFA501200D6EF17F03604D8A4A8
:102F7600BFEF17F0C1EF17F0D6EF17F04F50501014
:102F8600D8B4C8EF17F0CAEF17F0D6EF17F002D88B
:102F9600D6EF17F00500FA6E4F50FD6E5050FE6EDC
:102FA600FF6AFA5012001200366EF2903650D8A41C
:102FB600DFEF17F0E1EF17F0F8EF17F05550561066
:102FC600D8B4E8EF17F0EAEF17F015EF18F002D8CB
:102FD600F6EF17F00500FA6E5550FD6E5650FE6E70
:102FE600FF6AFA50120015EF18F03604D8A4FEEF67
:102FF60017F000EF18F015EF18F053505410D8B42E
:1030060007EF18F009EF18F015EF18F002D815EFD2
:1030160018F00500FA6E5350FD6E5450FE6EFF6AAE
:10302600FA5012001200366EF2903650D8A41EEFF7
:1030360018F020EF18F037EF18F059505A10D8B49E
:1030460027EF18F029EF18F054EF18F002D835EFF3
:1030560018F00500FA6E5950FD6E5A50FE6EFF6A62
:10306600FA50120054EF18F03604D8A43DEF18F0C9
:103076003FEF18F054EF18F057505810D8B446EFF9
:1030860018F048EF18F054EF18F002D854EF18F083
:103096000500FA6E5750FD6E5850FE6EFF6AFA50E4
:1030A60012001200366EF2903650D8A45DEF18F07A
:1030B6005FEF18F076EF18F05D505E10D8B466EF4B
:1030C60018F068EF18F093EF18F002D874EF18F0C4
:1030D6000500FA6E5D50FD6E5E50FE6EFF6AFA5098
:1030E600120093EF18F03604D8A47CEF18F07EEFA8
:1030F60018F093EF18F05B505C10D8B485EF18F019
:1031060087EF18F093EF18F002D893EF18F0050048
:10311600FA6E5B50FD6E5C50FE6EFF6AFA5012004E
:103126001200000190519111D8A49CEF18F09EEF67
:1031360018F0A2EF18F0000E926FCEEF18F090C0C4
:1031460080F091C081F00BEC19F00001926F90C0F5
:1031560080F091C081F045EC19F00001926F90C0AB
:1031660080F091C081F0B5EC0EF00001926F90C036
:103176008DF091C08EF0A8EC1CF090C082F091C04A
:1031860083F0E0EC12F090C080F091C081F058EC32
:1031960017F00001926F92511200000189518A11B5
:1031A600D8B4D8EF18F0DAEF18F0EBEF18F089C0C2
:1031B600D9FF8AC0DAFFDF30E832E832070B8B6FBF
:1031C600070E8B65E9EF18F0EBEF18F0EFEF18F04C
:1031D600000E8C6F09EF19F089C080F08AC081F06B
:1031E600E0EC0FF000018C6F89C080F08AC081F09E
:1031F60089C0D9FF8AC0DAFF000EDFBE010E826FDA
:1032060073EC10F000018C6F010E8C6F8C51120064
:10321600000180518111D8A413EF19F015EF19F0B0
:1032260024EF19F0000E846F43EF19F0F298010EA7
:10323600846F43EF19F0F0961AEF19F0F0981AEF31
:1032460019F020EE04F08051D9268151DA22DF50A0
:10325600826F836B8351000AD8B434EF19F015EFEF
:1032660019F08251000AD8B419EF19F0010AD8B43E
:103276001EEF19F0030AD8B421EF19F015EF19F073
:1032860084511200000180518111D8A44DEF19F02C
:103296004FEF19F05EEF19F0000E846F7DEF19F015
:1032A600F292010E846F7DEF19F0F09054EF19F051
:1032B600F09254EF19F020EE04F08051D926815196
:1032C600DA22DF50826F836B8351000AD8B46EEF27
:1032D60019F04FEF19F08251000AD8B453EF19F0E4
:1032E600010AD8B458EF19F0030AD8B45BEF19F005
:1032F6004FEF19F08451120000018D51D8A486EFCA
:1033060019F088EF19F08CEF19F0000E8F6FB4EFFB
:1033160019F08DC080F0816B000E826F73EC10F097
:1033260000018F6F8DC089F08E390F0B8A6FE4EC28
:1033360015F000018F6F8DC089F0D6EC1AF00001F0
:103346008F6F8DC089F08EC08AF0E4EC15F0000115
:103356008F6F8DC089F0D6EC1AF000018F6F010EC9
:103366008F6F8F51120000018D51D8A4BDEF19F057
:10337600BFEF19F0C3EF19F0000E8F6FEBEF19F0E6
:103386008DC080F0816B010E826F73EC10F000012E
:103396008F6F8DC089F08E390F0B8A6FE4EC15F0B4
:1033A60000018F6F8DC089F0D6EC1AF000018F6F87
:1033B6008DC089F08EC08AF0E4EC15F000018F6FA5
:1033C6008DC089F0D6EC1AF000018F6F010E8F6F59
:1033D6008F5112000E50D8A4F3EF19F0F5EF19F043
:1033E600F9EF19F0000E106E1CEF1AF00EC001F086
:1033F600026A000E036E04EC11F0106E0EC00AF0A5
:103406000F380F0B0B6EC8EC16F0106E0EC00AF0DC
:1034160002EC1BF0106E0EC00AF00FC00BF0C8ECE9
:1034260016F0106E0EC00AF002EC1BF0106E010EC4
:10343600106E105012000E50D8A424EF1AF026EF8A
:103446001AF02AEF1AF0000E106E4DEF1AF00EC0A9
:1034560001F0026A010E036E04EC11F0106E0EC04C
:103466000AF00F380F0B0B6EC8EC16F0106E0EC07C
:103476000AF002EC1BF0106E0EC00AF00FC00BF043
:10348600C8EC16F0106E0EC00AF002EC1BF0106EBF
:10349600010E106E10501200C90E0001946F510EED
:1034A600956F9551D8A4100E966F010E976F050E65
:1034B600986F92EC13F07C6E030E00019B6F8A0EE0
:1034C6009A6F550EE82EFED79A2FFCD79B2FFAD768
:1034D60000D0C90E00018D6F010E8E6F7FEC19F0C2
:1034E6007C6E820E00019A6FDD0EE82EFED79A2FB3
:1034F600FCD700D01200360E0001906F010E916FBE
:1035060094EC18F00001936F300E906F010E916FDE
:1035160094EC18F0000193172A0E906F010E916F2C
:1035260094EC18F000019317760E886F92EC11F068
:1035360000019317700E886F92EC11F0000193173B
:103546006A0E886F92EC11F0000193171200C90EF3
:103556000001906F4CEC0FF00001946FDE0E886F47
:1035660041EC1DF000019417DB0E886F41EC1DF055
:1035760000019417D80E886F41EC1DF000019417D6
:10358600D50E886F41EC1DF000019417D20E886F9E
:1035960041EC1DF000019417CF0E886F41EC1DF031
:1035A60000019417120000018951D8A4DDEF1AF02A
:1035B600DFEF1AF0E3EF1AF0000E8B6F00EF1BF04F
:1035C60089C08AF0010E8A278AC080F0816B010EBD
:1035D600826F73EC10F000D000D0000089C08AF032
:1035E600010E00018A278AC080F0816B000E826F6F
:1035F60073EC10F0010E00018B6F8B5112000A5014
:10360600D8A408EF1BF00AEF1BF00EEF1BF0000E1C
:103616000C6E29EF1BF00AC00BF0010E0B260BC037
:1036260001F0026A010E036E04EC11F000D000D026
:1036360000000AC00BF0010E0B260BC001F0026A57
:10364600000E036E04EC11F0010E0C6E0C5012000D
:10365600000E0001816F000E806FFD0E826F3AEC46
:103666001CF0000E0001816F080E806FFC0E826F49
:103676003AEC1CF0000E0001816F100E806FFB0EFD
:10368600826F3AEC1CF0000E0001816F180E806FFD
:10369600FA0E826F3AEC1CF0120000019451D8A485
:1036A60057EF1BF059EF1BF05DEF1BF0000E986F04
:1036B60071EF1BF094C090F096C091F097C092F015
:1036C60032EC16F00001986F94C08DF095C08EF024
:1036D600B6EC19F00001986F010E986F9851120020
:1036E60096C098F080EF1BF095C08AF0980E000106
:1036F6008B6F97C08CF0B6EC09F098C0F6FF100EF1
:10370600F76EF86A0800F5500009D8A48DEF1BF093
:103716008FEF1BF077EF1BF0000E0001966F000E87
:10372600956F1200000EF2BE010E046E0250030BDE
:10373600AA6E01C0A9FF03C0A8FFA69EA69CA684E8
:10374600F29E550EA76EAA0EA76EA682A6B2AEEF81
:103756001BF0B0EF1BF0A9EF1BF0A69404B002D04B
:10376600F29E01D0F28E1200000E026E000E016E65
:10377600FD0E036EC2EC1CF0000E026E080E016E0A
:10378600FC0E036EC2EC1CF0000E026E100E016EF3
:10379600FB0E036EC2EC1CF0000E026E180E016EDC
:1037A600FA0E036EC2EC1CF01200000E026E000E42
:1037B600016E000E036E95EC1BF0000E026E080EF5
:1037C600016E000E036E95EC1BF0000E026E100EDD
:1037D600016E000E036E95EC1BF0000E026E180EC5
:1037E600016E000E036E95EC1BF01200000E026EC9
:1037F600000E016EFDC003F095EC1BF0000E026E8C
:10380600080E016EFCC003F095EC1BF0000E026E74
:10381600100E016EFBC003F095EC1BF0000E026E5D
:10382600180E016EFAC003F095EC1BF0120017C0DB
:1038360019F026EF1CF016C00BF0190E0C6E18C00E
:103846000DF0A1EC0AF019C0F6FF100EF76EF86A3B
:103856000800F5500009D8A433EF1CF035EF1CF032
:103866001EEF1CF0000E176E000E166E1200000101
:103876008251D8A441EF1CF043EF1CF045EF1CF039
:1038860055EF1CF08151030BAA6E80C0A9FFA69EBE
:10389600A69CA6800000000000018251D96EDA6A5B
:1038A600A8CFDFFF12009B0E00019D6F99C09EF00E
:1038B600000EA26F000EA16F000EA96F000EA86F7A
:1038C6009E0E956F9AC096F09D0E976F73EC1BF047
:1038D60000019951A125D96EDA6ADF6A1200AAECB5
:1038E6001AF07EEC1AF04FEC1AF032EC0CF00001F4
:1038F600E151D8B481EF1CF083EF1CF087EF1CF088
:10390600D4EC0CF07AEF1CF087EC0BF07AEF1CF09D
:1039160007EF00F0000187BF93EF1CF095EF1CF056
:103926009BEF1CF086C086F087C087F0A7EF1CF0DF
:1039360086C088F087C089F0881F891F884B892B2D
:1039460088C086F089C087F0120000018D518E1163
:10395600D8A4B0EF1CF0B2EF1CF0B6EF1CF0000ECE
:103966008F6FC0EF1CF0020E8D25896F000E8E2121
:103976008A6FD0EC18F000018F6F8F511200035040
:10398600D8A4C8EF1CF0CAEF1CF0CCEF1CF0DBEF9C
:103996001CF00250030BAA6E01C0A9FFA69EA69CAE
:1039A600A680000000000350D96EDA6AA8CFDFFFB8
:1039B60012001C0E1E6E1AC01FF0000E236E000EA3
:1039C600226E000E2A6E000E296E1F0E166E1BC08A
:1039D60017F01E0E186E1AEC1CF01A502224D96E1F
:1039E600DA6ADF6A120008BEFBEF1CF0FDEF1CF07E
:1039F60003EF1DF007C007F008C008F00FEF1DF039
:103A060007C009F008C00AF0091E0A1E094A0A2A58
:103A160009C007F00AC008F0120080C085F01AEF4E
:103A26001DF08551D96EDA6A81C0DFFF852B000152
:103A36008307D8A08407832906E18429D8A426EF22
:103A46001DF028EF1DF014EF1DF0120001C006F066
:103A560033EF1DF00650D96EDA6A02C0DFFF062A80
:103A66000406D8A00506042806E10528D8A43EEFDA
:103A76001DF040EF1DF02DEF1DF0120000018851E2
:103A8600D8A448EF1DF04AEF1DF04EEF1DF0000ED2
:103A9600896F56EF1DF088C080F0816BE0EC0FF067
:103AA600010E0001896F89511200000E0001E16FBD
:103AB600C90E0E6E010E0F6EEDEC19F0000E000130
:103AC600FD6F000EFC6F000EFB6F000EFA6FD8EC58
:103AD6001BF016EC0EF01200F0925F506010D8B496
:103AE60077EF1DF079EF1DF085EF1DF002D885EF19
:103AF6001DF00500FA6E5F50FD6E6050FE6EFF6AA7
:103B0600FA5012001200F09061506210D8B48EEF95
:103B16001DF090EF1DF09CEF1DF002D89CEF1DF0FC
:103B26000500FA6E6150FD6E6250FE6EFF6AFA5035
:103B360012001200F29263506410D8B4A5EF1DF083
:103B4600A7EF1DF0B3EF1DF002D8B3EF1DF005008F
:103B5600FA6E6350FD6E6450FE6EFF6AFA501200F4
:103B66001200890F8A0F8B0F8C0F8D0F920F930FF8
:103B7600940F950F960F020A121A222A71010069F4
:103B860001006101005101004901004101000001ED
:103B960080518111D8A4D2EF1DF0D4EF1DF0D6EFDD
:103BA6001DF0DCEF1DF080C05FF081C060F0D4EF47
:103BB6001DF0000E1200000180518111D8A4E6EF1D
:103BC6001DF0E8EF1DF0EAEF1DF0F0EF1DF080C0EC
:103BD60061F081C062F0E8EF1DF0000E12000001F6
:103BE60080518111D8A4FAEF1DF0FCEF1DF0FEEF15
:103BF6001DF004EF1EF080C063F081C064F0FCEF9E
:103C06001DF0000E12000001E151D8A40DEF1EF0C8
:103C16000FEF1EF019EF1EF0010EE16FC90E0E6ECA
:103C2600010E0F6EEDEC19F075EC0DF01200800F21
:103C3600810F820F830F840F9E3C510102016A3C63
:103C460049010101843C410100010001E151D8A470
:103C56002FEF1EF031EF1EF034EF1EF0FA2BF9ECC9
:103C66001BF012000001E151D8A43CEF1EF03EEF1C
:103C76001EF041EF1EF0FC2BF9EC1BF012000001C8
:103C8600E151D8A449EF1EF04BEF1EF04EEF1EF0A7
:103C9600FD2BF9EC1BF012000001E151D8A456EF00
:103CA6001EF058EF1EF05BEF1EF0FB2BF9EC1BF03D
:103CB6001200010101010C3C000071010000B03A44
:0C3CC6006901503C000061011200120076
:020000040030CA
:0E000000FF02091EFF8181FF0FC00FE00F40BD
:00000001FF
